:1000000000000220B1E60100D9E60100DBE60100B4
:10001000DDE60100DFE60100E1E60100000000008E
:10002000000000000000000000000000E3E6010006
:10003000E5E6010000000000E7E60100E9E6010056
:10004000EBE60100E1ED000051E5010015E50100DE
:1000500029E50100EBE6010099CD0100A1BB0100FB
:100060003DE1010045E101004DE10100EBE6010049
:10007000EBE60100EBE60100EBE60100EBE6010038
:10008000EBE60100EBE60100EBE60100EBE6010028
:10009000EBE60100EBE60100EBE60100EBE6010018
:1000A000EBE60100EBE6010055E101005DE1010036
:1000B000EBE60100EBE6010000000000000000009C
:1000C000EBE60100EBE60100EBE601003DE5010097
:1000D000EBE60100EBE60100EBE60100EBE60100D8
:1000E00079E50100000000000000000000000000B1
:1000F00000000000EBE601000000000065E50100E3
:1001000000000000000000000000000000000000EF
:1001100000000000000000000000000000000000DF
:1001200000000000000000000000000000000000CF
:1001300000000000000000000000000000000000BF
:1001400000000000000000000000000000000000AF
:10015000000000000000000000000000000000009F
:10016000000000000000000000000000000000008F
:10017000000000000000000000000000000000007F
:10018000000000000000000000000000000000006F
:10019000000000000000000000000000000000005F
:1001A000000000000000000000000000000000004F
:1001B000000000000000000000000000000000003F
:1001C000000000000000000000000000000000002F
:1001D000000000000000000000000000000000001F
:1001E000000000000000000000000000000000000F
:1001F00000000000000000000000000000000000FF
:100200002DE9F04F85B003910778A7F10903042B7E
:10021000044607F07F0200F10100F5D9202AF3D04F
:100220002B2F04BF677804462D2F75D09FED427B9E
:100230008DED007B4FF000084FF000099FB34FF0A9
:10024000000C25464FF0000ADFF8FCB0644619E0C8
:1002500021F04CFF80468946304621F0DDFE4246C3
:100260004B4621F08DFD5246804689465B46DDE9CE
:1002700000013CB322F064F8CDE90001A44615F872
:10028000017F7FB1A7F13006092E52465B464046FA
:100290004946DDD9CCB92E2F17D115F8017F01249D
:1002A000002FEFD12C4642464B46DDE9000121F0FC
:1002B0001DFF80468946039B404649461C6005B0A9
:1002C000BDE8F08F4FF0010CD9E72C46BCF1000FD0
:1002D00029D042464B46DDE9000121F007FF07F037
:1002E000DF07452F80468946E5D10399681C0A221D
:1002F00021F014FD14490246002022F057FA02466C
:100300000B464046494621F0F1FE8046894640466C
:10031000494605B0BDE8F08F9FED097B67788DED0C
:10032000007B013486E7DFF824904FF00008404658
:10033000494605B0BDE8F08F000000000000F03F26
:10034000000000000000F0BF000024400000F87F23
:100350002DE9F0470023144600228046894622F00A
:1003600037F928B109F1004399462D232370013450
:10037000002200234046494622F020F928B13022CD
:10038000002322706370BDE8F087404649461FF0A5
:10039000FDF922F05BF973A3D3E900230746494630
:1003A000404622F015F900284ED170A3D3E900236E
:1003B0004046494622F02AF9002845D10E2F07F180
:1003C000010540F3B980A7F10E06324600206249CC
:1003D00022F0ECF902460B464046494621F0B0FFB8
:1003E00000225E4B21F0CCFC22F01CFA002DA7F17C
:1003F0000F0E4FF0010C4DDD594FDFF878810122CF
:1004000045F6F3294FF02E0A494508BF40454FF005
:1004100030030AD3B0EB080061EB0901494508BF7E
:10042000404503F10103F5D2DBB2237050EA01032A
:1004300004F101084AD1954252DD0132102A4FD011
:10044000444677E90289DFE7002F33DB3A46002094
:10045000414922F0ABF902460B464046494621F09D
:100460006FFF3BA3D3E90023804689460125002680
:100470004046494621F03AFE0022384B21F080FCEC
:1004800022F0D0F9002DBC464FF0FF3E37464FF02A
:100490000006B1DC234630224FF02E0803F8022B71
:1004A00084F80180FC4345D01C4403F8012BA3428F
:1004B000FBD1A1E77A420020274922F077F90246D2
:1004C0000B464046494621F011FECAE7954202F12B
:1004D000010204BF84F801A004F10208102AAFD180
:1004E0006EB14246302102F8011BC2F10103734490
:1004F0004344002BF7DC2EEAEE7301339844BCF141
:10050000010F12D0BCF1000F4FF0650388F80030E6
:10051000C5BF2B2388F8013008F1010108F1020161
:100520006046BDE8F04713F051BA002388F8003068
:10053000BDE8F0871C465FE7C7F10E0200200649C0
:1005400022F034F93E4602460B46012790E700BFF1
:100550000000901EC4BCD642000024400000E03FD2
:10056000083502008DEDB5A0F7C6B03E50EFE2D6DB
:10057000E41A4B4400407A1070B54FF0FF3009F098
:10058000C1FB04466FF07F4009F0BCFB06462046E5
:1005900021F032FD00220C4B21F0A8FD044630462C
:1005A0000D4621F029FD06A3D3E9002321F0C8FE62
:1005B00002460B462046294621F0E2FB70BD00BFF3
:1005C0000000E0DFFFFF6F430000F03D000000008F
:1005D0002DE9F843036B044618680D4621F02EFD03
:1005E000064668680F4668B321F016FD1FF0CEF886
:1005F000236B95ED037AD3ED007A77EE677A804628
:10060000894617EE900A21F019FD42464B4621F02B
:100610006DFD10A3D3E9002321F092FE3B46324644
:1006200021F0AEFB22F05AF807EE900AF5EEC07A00
:10063000F1EE10FA4FF0000354BFC4ED137AE364F7
:10064000BDE8F88300200249D0E700BFAFF3008087
:100650000000F03F333333333333FF3F00000000FB
:100660002DE9F04F2DED028B044683B0C06821F0D8
:10067000D3FC80462069894621F0CEFC8246606921
:100680008B4621F0C9FC024601F1004306460F46A5
:10069000404649461EF02EFF22F020F8E062054653
:1006A0001EF0E0FD019028461EF090FD019B0546DE
:1006B000184621F0C3FC42464B4621F017FD804608
:1006C0002846894621F0BAFC32463B4621F00EFD11
:1006D00002460B464046494621F050FB02460B4677
:1006E000504659461EF006FF21F0F8FF002208EEA2
:1006F000100A00233046394621F088FF28B3B5EEB2
:10070000C08AF1EE10FA1CDD11A7D7E9006718EED8
:10071000100A21F093FC02460B463046394621F080
:100720002DFB32463B4621F02BFB21F0D7FFA06288
:10073000E38843F00203E38003B0BDEC028BBDE825
:10074000F08F05A7D7E90067E1E784ED0A8AEFE7B4
:10075000EA2E4454FB21F93FEA2E4454FB21F9BF11
:1007600008B514F091FDDFED0C7A07EE100A67EE84
:10077000277A17EE900A21F061FC05A3D3E9002344
:1007800021F0DEFD21F062FF08BD00BFAFF3008065
:10079000EA2E4454FB2119400000B443000000003D
:1007A00008B514F07FFDDFED0C7A07EE100A67EE56
:1007B000277A17EE900A21F041FC05A3D3E9002324
:1007C00021F0BEFD21F042FF08BD00BFAFF3008065
:1007D000EA2E4454FB2119400000B44300000000FD
:1007E00070B52DED068B044684B0406CDFED34AA65
:1007F00014F058FD0646606C14F046FD02222146B6
:10080000054601A814F06AFEDDED027AB8EEE78A2B
:10081000DDED037A3046B8EEE79A1EF023FD0AEECE
:10082000100A30461EF0D2FC09EE900A28461EF04F
:1008300019FD08EE900A28461EF0C8FC68EE287ADA
:100840009DED017A06EE900AB8EEC77A67EE8A7AD5
:1008500029EEC88AE7EE267A69EE288AA9EE0A8A86
:10086000E8EEA97A18EE101A17EE900A1FF0D2F8E7
:1008700007EE900A67EEAA7A17EE900A21F0DEFBE7
:100880000DA3D3E9002321F05BFD21F027FFDFED6D
:100890000D7A07EE100A77EEC77AF5EEC07AF1EE20
:1008A00010FA48BF77EEAA7AFDEEE77A17EE900AC3
:1008B00004B0BDEC068B70BDEA2E4454FB211940F8
:1008C0000000B4430000B44200B585B001220146E7
:1008D00001A814F003FEDDED027AF8EEE77A17EED8
:1008E000901ADDED017AF8EEE77A17EE900A1FF024
:1008F00091F8DFED137A07EE100A67EE277A17EE0C
:10090000900A21F09BFB0CA3D3E9002321F018FDF2
:1009100021F0E4FE07EE900AF5EEC07AF1EE10FA4F
:1009200044BF9FED087A77EE877AFDEEE77A17EEFF
:10093000900A05B05DF804FBEA2E4454FB210940FF
:10094000000034430000B443494A21F0004393427D
:100950002DE9704304460D4649DC464A93420E4653
:100960000EDC3FA3D3E9002321F00AFA0022424B18
:1009700021F04CFE00284AD020462946BDE870836D
:100980003E4A934239DCB3F1804F40DD1EF00CFB50
:100990002246804689462B462046294621F0A6FB62
:1009A0000022354B21F0ECF91FF0ACFB42464B46E0
:1009B00021F0E6F902460B4600202F4921F0C0FC49
:1009C000424604460D464B464046494621F0D8F97A
:1009D00002460B462046294621F0D2F901F0A0FE3E
:1009E000002E08DC01F100431946BDE87083024681
:1009F0000B4621F0C5F9BDE870831EF0D5FA01F071
:100A00008FFE19A3D3E9002321F0BAF9E8E72246C3
:100A10002B462046294621F069FB80468946204620
:100A200029461EF0C1FA002204460D46124B4046EC
:100A3000494621F0A5F91FF065FB00220E4B21F07D
:100A40009FF902460B464046494621F079FC224672
:100A50002B4621F095F900F0A7FAC1E7AFF300802B
:100A60009C7500883CE4377EEF39FAFE422EE63F63
:100A7000FFFFEF7FFFFF2F3E0000F03F0000B0417F
:100A80002DE9F84FBE4B21F000469E4204460D462C
:100A90008A460EDDBB4B9E4200F3B18000F0AC8075
:100AA000BAF1000F40F3EA8099A1D1E90001BDE855
:100AB000F88FB54B9E4200F3BA80A3F1DE739E42DD
:100AC00040F3A5804FF0FF3B22462B4620462946A7
:100AD00021F00CFB02460B468046894621F006FBBE
:100AE0008DA3D3E9002306460F4621F0FFFA8CA31D
:100AF000D3E9002321F044F932463B4621F0F6FACF
:100B000089A3D3E9002321F03BF932463B4621F08B
:100B1000EDFA87A3D3E9002321F032F932463B46B0
:100B200021F0E4FA84A3D3E9002321F029F9324625
:100B30003B4621F0DBFA82A3D3E9002321F020F920
:100B400042464B4621F0D2FA7FA3D3E900238046E8
:100B500089463046394621F0C9FA7DA3D3E90023FE
:100B600021F00CF932463B4621F0C0FA7AA3D3E9D2
:100B7000002321F003F932463B4621F0B7FA78A36F
:100B8000D3E9002321F0FAF832463B4621F0AEFAD1
:100B900075A3D3E9002321F0F1F832463B4621F05A
:100BA000A5FA02460B464046494621F0E9F822469E
:100BB0002B4621F09BFABBF1FF3F02460B4661D06A
:100BC000724B734E4FEACB0B5B44D3E9002321F009
:100BD000D5F822462B4621F0D1F8B34402460B4605
:100BE000DBE9000121F0CAF8BAF1000F0DDA01F1DA
:100BF00000431946BDE8F88F00283FF451AF224664
:100C00002B462046294621F0BBF8BDE8F88F58A3B3
:100C1000D3E9002321F0B4F800225E4B21F0F6FC6A
:100C200000283FF44FAF20462946BDE8F88F1EF05C
:100C3000BBF9594B9E4204460D4629DCA3F55023CF
:100C40009E424EDC02460B4621F09AF80022514BA0
:100C500021F094F8002206460F464FF080432046CC
:100C6000294621F08DF802460B463046394621F0E0
:100C700067FB4FF0000B04460D4625E73EA1D1E986
:100C80000001C2E72046294621F078F8BDE8F88F38
:100C9000424B9E421ADC0022414B21F06FF80022A9
:100CA00006460F463E4B2046294621F01FFA0022F9
:100CB000384B21F065F802460B463046394621F0A4
:100CC0003FFB4FF0020B04460D46FDE602460B4685
:100CD0000020344921F034FB4FF0030B04460D464D
:100CE000F2E600222B4B21F049F8002206460F467F
:100CF000284B2046294621F043F802460B46304651
:100D0000394621F01DFB4FF0010B04460D46DBE692
:100D1000182D4454FB21F93F11DA22E33AAD903FFC
:100D2000EB0D76244B7BA93F513DD0A0660DB13F22
:100D30006E204CC5CD45B73FFF8300922449C23F8A
:100D40000D5555555555D53F2F6C6A2C44B4A2BF4F
:100D50009AFDDE522DDEAD3F6D9A74AFF2B0B33F17
:100D6000711623FEC671BC3FC4EB98999999C93F8F
:100D70009C7500883CE4377E182D4454FB21F9BF54
:100D8000FFFF0F440000F07FFFFFDB3F3035020024
:100D9000103502000000F03FFFFFF23FFF7F0340ED
:100DA0000000F83F0000F0BF2DE9F041C1F30A5701
:100DB000A7F2FF35132D02460B460C468846064621
:100DC00020DC002D4ADB364F2F4101EA070C5CEA9C
:100DD000000C1CD030A3D3E9002320F0D1FF002267
:100DE000002321F013FC48B1002C04DD4FF48013E4
:100DF00043FA05F5A84428EA0704002621463046B0
:100E0000BDE8F081332D06DDB5F5806F38D0104692
:100E10001946BDE8F081A7F213474FF0FF3C2CFACA
:100E200007F70742F3D01CA3D3E9002320F0A8FF63
:100E30000022002321F0EAFB0028DFD0002C09DD8E
:100E4000142D22D00123C5F1340503FA05F5AE199E
:100E500028BF984426EA07064446CFE70EA3D3E905
:100E6000002320F08DFF0022002321F0CFFB00287B
:100E7000C4D0002C0CDB264305D00026094CBDE76E
:100E800020F07EFFC5E73446B8E704F10108E1E74A
:100E900000264FF00044B1E79C7500883CE4377EA3
:100EA000FFFF0F000000F03F2DE9F041C1F30A57AA
:100EB000A7F2FF35132D02460B460C468846064620
:100EC0001DDC002D3CDB364F2F4101EA070C5CEAAC
:100ED000000C19D030A3D3E9002320F051FF0022E9
:100EE000002321F093FBC8B3002C04DA4FF48013E5
:100EF00043FA05F5A84428EA070400262EE0332D1E
:100F000006DDB5F5806F2DD010461946BDE8F0819D
:100F1000A7F213474FF0FF3C2CFA07F70742F3D034
:100F20001DA3D3E9002320F02BFF0022002321F092
:100F30006DFB98B1002C21DB26EA070644460DE044
:100F400015A3D3E9002320F01BFF0022002321F08A
:100F50005DFB18B1002C08DB0026344621463046E4
:100F6000BDE8F08120F00CFFD0E724F000430D4AEB
:100F70001E43002E18BF14460026EFE7142D08D09C
:100F80000123C5F1340503FA05F5AE1928BF9844CD
:100F9000D2E704F10108CFE79C7500883CE4377E76
:100FA000FFFF0F000000F0BF2DE9F04FD84B994232
:100FB00087B08046894643DDD64B99420E4600F302
:100FC000F480D54B994240F32D819FEDBB7B8DED95
:100FD000047B4FEA215A0446AAF2FF3ACF4BC6F3EC
:100FE00013069E4246F07F5500F3128145F44015EA
:100FF000204629460022CA4B20F0C0FE00220446AB
:101000000D46C84B21F072F822462B4621F06EF8AF
:10101000A046CDE90201A946CDE90001002E3AD152
:10102000002200232046294621F0C8FA002800F0BB
:101030001B81BAF1000F40F0858100200021B8E04B
:10104000B94B21F000449C420A460FDD0022B74B09
:1010500021F0B4FA002800F0AF8000220023002025
:10106000B34921F06DF907B0BDE8F08FB14B9C4258
:1010700040F3AF80B04B1A449A4240F2D380002232
:10108000A84B21F033F842464B4621F02FF8CDE92A
:1010900000014FF0000A00224FF0804340464946CD
:1010A00020F06EFE02460B464046494621F048F9C4
:1010B00002460B4606460F4621F018F880A3D3E9F6
:1010C000002304460D4621F011F87FA3D3E9002345
:1010D00020F056FE22462B4621F008F87CA3D3E9E7
:1010E000002320F04DFE22462B4620F0FFFF7AA37E
:1010F000D3E9002320F044FE22462B4620F0F6FFE1
:1011000077A3D3E9002320F03BFE22462B4620F0B4
:10111000EDFF75A3D3E9002320F032FE22462B46D3
:1011200020F0E4FF72A3D3E9002320F029FE224639
:101130002B4620F0DBFFDDE9002320F021FE3246C4
:101140003B4620F0D3FF04460D46BAF1000F00F0F5
:10115000A880504620F060FF67A3D3E900238246B1
:101160008B4620F0C3FF66A3D3E9002306460F4653
:101170005046594620F0BAFFDDE9042320F000FE76
:1011800022462B4620F0FCFD02460B46DDE900011D
:1011900020F0F4FD42464B4620F0F0FD02460B469F
:1011A0003046394620F0EAFD03E002460B4620F0C7
:1011B000E7FD07B0BDE8F08F42464B464046494642
:1011C00020F0DCFD02460B4621F0BAF807B0BDE87E
:1011D000F08F0022594B20F0D3FD0022002321F094
:1011E00015FA10B1564B9C4262DD42464B464046D2
:1011F000494620F07BFF00224A4B20F077FF024651
:101200000B464046494620F0B9FD07B0BDE8F08FD7
:1012100045F40015C6F5801620462946B6100AF199
:10122000010AE7E600223E4B4046494620F0A8FD71
:101230004FEA215AAAF2FF3ABAF1000F04460D46CE
:101240000E4640F3BD8042464B4620F097FD0246D5
:101250000B460020324920F091FD22462B4621F01A
:101260006FF8CDE90401B9E627A3D3E900232046AE
:10127000294620F03BFF02460B460020284920F07B
:101280007DFDDDE9022320F031FF06460F46BAF16D
:10129000000F75D102460B462046294620F06EFD10
:1012A00087E702460B46DDE9000120F067FDA6E76F
:1012B000404649467DE700BF0000000000000000F6
:1012C00044523EDF12F1C23F9FC678D0099AC33F15
:1012D000DE03CB966446C73FAF788E1DC571CC3F09
:1012E000599322942449D23F04FA97999999D93F66
:1012F000935555555555E53F0000E0FE422EE63F1B
:10130000763C7935EF39EA3D555555555555E53F0C
:101310007982DA3FFFFFEF7FFFFF3F439DA006008A
:101320000000F03F0000E03FFFFFEF3F0000F0BF94
:10133000000050C3FFFF1F3E3C412D4000005043C2
:10134000FFFF8F3C504620F067FE24A3D3E9002323
:1013500006460F4620F0CAFEDDE9042320F010FD0A
:1013600020A3D3E9002304460D463046394620F039
:10137000BDFE02460B462046294620F001FD18E737
:10138000504620F049FE17A3D3E9002382468B463E
:1013900020F0ACFE11A3D3E90023804689465046D5
:1013A000594620F0A3FEDDE9042320F0E9FC0246C3
:1013B0000B463046394620F0E1FC22462B4674E7C6
:1013C0000022054B20F0DAFC02460B464046494617
:1013D00020F0D4FC41E700BF0000F03F763C7935B7
:1013E000EF39EA3D0000E0FE422EE63F000000003B
:1013F00008B51EF04DF904A3D3E9002320F0A0FFA7
:1014000008BD00BFAFF30080EF39FAFE422EE63F81
:101410002DE9F043DFF8B4808BB004460D4600F0B0
:1014200057FF98F90030013306460F462CD022466C
:101430002B462046294621F0F3F8814620BB204662
:1014400029461DF0B1FD1FA3D3E9002321F0DEF8EA
:10145000D0B1194A98F90030CDF820900321CDE998
:101460000445CDE90245CDE9001293B113490020AE
:10147000022BCDE9060111D120F0F8FB22230360F5
:10148000089B9BB9DDE90667304639460BB0BDE8DD
:10149000F0830B4B4FF06042CDE90623684620F005
:1014A00091F80028E8D0089B002BEBD020F0DEFB61
:1014B000089B0360E6E700BFDC5E02000000F07FEF
:1014C000FFFFEF477DF8B98FCE338640D40200206E
:1014D0002DE9F043DFF8E4808BB004460D4600F0C0
:1014E000A7FF98F90030013306460F4633D0204657
:1014F000294620F061F870B32CA3D3E900232046DD
:10150000294621F083F8814650BB2AA3D3E9002362
:101510002046294621F05CF8E8B198F90030204ACD
:10152000CDF82090002000210426022BCDE90445AF
:10153000CDE902450096CDE90601019229D0684621
:1015400020F040F828B3089B1BB120F08FFB089BCC
:101550000360DDE90667304639460BB0BDE8F0832D
:101560000F4A98F90030019203210022CDE9044589
:10157000CDE90245009108922BB90A4B4FF0604229
:10158000CDE90623DBE708490020022BCDE906015F
:10159000D5D120F06BFB22230360D4E7AFF30080AA
:1015A000E45E0200FFFFEF470000F07FEF39FAFE34
:1015B000422E864051302DD5104987C0D4020020DC
:1015C0002DE9F84FC44E21F00043B34204460D46C6
:1015D0000DDD03F1404303F58013034340F0B98070
:1015E000002940F3408100200021BDE8F88FBB4E68
:1015F000B34208DCBA4A934200F3B5809CA1D1E91A
:101600000001BDE8F88F0029C0F2708102460B4648
:101610000020B44920F0B2FB0022B34B20F066FD5D
:1016200004460D461EF06EFD93A3D3E900238946C0
:1016300080462946204620F059FD91A3D3E9002396
:1016400020F09EFB22462B4620F050FD8EA3D3E9CE
:10165000002320F093FB22462B4620F047FD8CA36D
:10166000D3E9002320F08CFB22462B4620F03EFDE0
:1016700089A3D3E9002320F081FB22462B4620F0EA
:1016800035FD87A3D3E9002320F07AFB22462B46C1
:1016900020F02CFD84A3D3E9002382468B4620460C
:1016A000294620F023FD82A3D3E9002320F066FB26
:1016B00022462B4620F01AFD7FA3D3E9002320F019
:1016C0005FFB22462B4620F011FD7DA3D3E90023CA
:1016D00020F054FB22462B4620F008FD0022814BCF
:1016E00020F04EFB02460B465046594620F028FE9D
:1016F00042464B4620F0FAFC002682468B46324694
:101700004B463046494620F0F1FC02460B46204647
:10171000294620F033FB324604460D464B464046F0
:10172000494620F02DFB02460B462046294620F074
:1017300007FE02460B465046594620F021FB324632
:101740004B4620F01DFB02460B4620F019FBBDE87E
:10175000F88F02460B4620F011FB02460B4620F0A4
:10176000EFFDBDE8F88F02460B4620F0BFFC42A318
:10177000D3E9002306460F4620F0B8FC40A3D3E986
:10178000002320F0FDFA32463B4620F0AFFC3EA39A
:10179000D3E9002320F0F2FA32463B4620F0A6FCC3
:1017A0003BA3D3E9002320F0EBFA32463B4620F07E
:1017B0009DFC39A3D3E9002320F0E0FA32463B46F2
:1017C00020F094FC36A3D3E9002320F0D9FA324666
:1017D0003B4620F08BFC34A3D3E9002380468946A6
:1017E0003046394620F082FC31A3D3E9002320F0B3
:1017F000C5FA32463B4620F079FC2FA3D3E90023FB
:1018000020F0BEFA32463B4620F070FC2CA3D3E910
:10181000002320F0B3FA32463B4620F067FC00225A
:10182000304B20F0ADFA02460B464046494620F0C8
:1018300087FD22462B4620F059FC02460B4622A18A
:10184000D1E9000120F09AFA02460B4620462946CB
:1018500020F094FA02460B4605A1D1E9000120F0E0
:101860008DFABDE8F88F1AA1D1E9000179E700BF30
:10187000182D4454FB21F93F09F7FD0DE13D023FCE
:1018800088B20175E0EF493F3B8F68B52882A43FDD
:101890005544880E55C1C93F7D6FEB0312D6D43F26
:1018A000555555555555C53F82922EB1C5B8B33FD4
:1018B00059018D1B6C06E63FC88A599CE52A0040F9
:1018C0004B2D8A1C273A0340075C143326A6913C13
:1018D000182D4454FB210940FFFFEF3FFFFFDF3F7E
:1018E0000000603C0000F03F0000E03F00225C4B45
:1018F00020F046FA00225B4B20F0F8FB40A3D3E92E
:10190000002304460D4620F0F1FB3FA3D3E900235A
:1019100020F036FA22462B4620F0E8FB3CA3D3E920
:10192000002320F02BFA22462B4620F0DFFB3AA3BF
:10193000D3E9002320F024FA22462B4620F0D6FBE0
:1019400037A3D3E9002320F019FA22462B4620F0D2
:10195000CDFB35A3D3E9002320F012FA22462B4613
:1019600020F0C4FB80468946204629461EF0CAFB6B
:101970002FA3D3E9002306460F462046294620F030
:10198000B5FB2DA3D3E9002320F0F8F922462B461E
:1019900020F0ACFB2AA3D3E9002320F0F1F9224682
:1019A0002B4620F0A3FB28A3D3E9002320F0E6F97F
:1019B00022462B4620F09AFB0022294B20F0E0F92A
:1019C00002460B464046494620F0BAFC32463B46AA
:1019D00020F08CFB1EA3D3E9002320F0CFF9324680
:1019E0003B4620F0CDF902460B4620F0C9F90246ED
:1019F0000B4619A1D1E9000120F0C0F9B1E600BF02
:101A000009F7FD0DE13D023F88B20175E0EF493F66
:101A10003B8F68B52882A43F5544880E55C1C93F05
:101A20007D6FEB0312D6D43F555555555555C53FDF
:101A300082922EB1C5B8B33F59018D1B6C06E63FAB
:101A4000C88A599CE52A00404B2D8A1C273A03403E
:101A5000075C143326A6913C182D4454FB21094001
:101A60000000F03F0000E03F414A91422DE9F84379
:101A700004460D4637DD3F4A91420B4608DD02F130
:101A8000795291423DDD024620F07AF9BDE8F883B3
:101A900001F1404202F5801202432ED0B1F1804F95
:101AA00037DC0022344B20F069F902460B4604462D
:101AB0000D4620F065F9224606460F462B46204685
:101AC000294620F013FB02460B463046394620F0EB
:101AD00057F91EF017FB22462B4620F051F9BDE8BE
:101AE000F843FFF761BA02460B4620F047F9024679
:101AF0000B4620F025FCBDE8F88300200021BDE85E
:101B0000F88300F00DFE18A3D3E9002320F038F984
:101B1000F1E7024620F0EAFA0022174B20F02EF9F6
:101B20001EF0F0FA2246804689462B46204629467A
:101B300020F026F9224606460F462B4640464946E7
:101B400020F01EF902460B4600200B4920F0F8FB5E
:101B50000B4602463946304620F010F9BDE8F843FE
:101B600000F0DEBDAFF30080EF39FAFE422EE63F13
:101B7000FFFFEF3FFFFFAF410000F03F000000001C
:101B80002DE9F04FAE4B21F000479F4287B004464D
:101B90000D4611DD07F1404707F5801703463B432B
:101BA00021D002460B4620F0E9F802460B4620F011
:101BB000C7FB07B0BDE8F08FA24B9F420E4629DC61
:101BC000B7F1795F80F2468181A3D3E9002320F049
:101BD000D7F800229C4B20F019FDD8B120462946A9
:101BE00007B0BDE8F08F7CA3D3E9002320F07EFA94
:101BF0007BA3D3E9002306460F462046294620F062
:101C000075FA02460B463046394620F0B9F807B05F
:101C1000BDE8F08F204629461DF0C6F902460B4666
:101C20000020894920F0AAF80022884B20F05EFAB3
:101C30006DA3D3E9002304460D4620F057FA6CA3A8
:101C4000D3E9002320F09CF822462B4620F04EFAE0
:101C500069A3D3E9002320F091F822462B4620F017
:101C600045FA67A3D3E9002320F08AF822462B46E1
:101C700020F03CFA64A3D3E9002320F07FF8224649
:101C80002B4620F033FA62A3D3E9002320F078F842
:101C900022462B4620F02AFA5FA3D3E90023CDE9A0
:101CA00000012046294620F021FA5DA3D3E9002354
:101CB00020F064F822462B4620F018FA5AA3D3E904
:101CC000002320F05DF822462B4620F00FFA58A39F
:101CD000D3E9002320F052F822462B4620F006FAE2
:101CE000594B002220F04CF882468B46204629466C
:101CF000CDE902AB1EF006FA554B9F42804689465D
:101D000000F3198102460B4620F03AF8DDE9022380
:101D1000CDE90401DDE9000120F012FB02460B468B
:101D2000DDE9040120F0E2F94FF0000ACDE90001FD
:101D300052464B465046494620F0D8F902460B46DB
:101D40002046294620F01AF8524604460D464B46D6
:101D50004046494620F014F802460B4620462946E4
:101D600020F0EEFA02460B4620F00AF802460B4637
:101D70001BA1D1E9000120F001F802460B46DDE984
:101D800000011FF0FBFF524604460D464B465046ED
:101D900049461FF0F5FF02460B4627A1D1E9000195
:101DA0001FF0ECFF02460B46204629461FF0E6FFD7
:101DB00002460B4620A1D1E900011FF0DFFF002EF3
:101DC0003FF7F7AE01F100431946F2E6AFF30080AA
:101DD0009C7500883CE4377E182D4454FB21F93F64
:101DE000075C143326A6913C09F7FD0DE13D023F47
:101DF00088B20175E0EF493F3B8F68B52882A43F68
:101E00005544880E55C1C93F7D6FEB0312D6D43FB0
:101E1000555555555555C53F82922EB1C5B8B33F5E
:101E200059018D1B6C06E63FC88A599CE52A004083
:101E30004B2D8A1C273A0340182D4454FB21E93FBF
:101E4000FFFFEF3FFFFFDF3F0000F03F0000E03FFC
:101E50003233EF3F02460B4620F048F94BA3D3E95B
:101E6000002306460F4620F041F94AA3D3E9002398
:101E70001FF086FF32463B4620F038F947A3D3E9EE
:101E800000231FF07BFF32463B4620F02FF945A38D
:101E9000D3E900231FF074FF32463B4620F026F9B9
:101EA00042A3D3E900231FF069FF32463B4620F0EE
:101EB0001DF940A3D3E900231FF062FF32463B46E1
:101EC00020F014F93DA3D3E900238046894630462B
:101ED000394620F00BF93BA3D3E900231FF04EFF56
:101EE00032463B4620F002F938A3D3E900231FF025
:101EF00047FF32463B4620F0F9F836A3D3E90023EA
:101F00001FF03CFF32463B4620F0F0F800221E4B0B
:101F10001FF036FF02460B464046494620F010FAB5
:101F200022462B4620F0E2F822462B461FF028FFDF
:101F300007B0BDE8F08F52465B46DDE9000120F0B6
:101F4000FFF942464B4620F0D1F842464B461FF07F
:101F500017FF02460B461FF013FF07A3D3E9002328
:101F60001FF00CFF02460B4605A1D1E900011FF04E
:101F700005FF24E7AFF30080075C143326A6913CED
:101F8000182D4454FB21F93F0000F03F09F7FD0DE7
:101F9000E13D023F88B20175E0EF493F3B8F68B5F4
:101FA0002882A43F5544880E55C1C93F7D6FEB037D
:101FB00012D6D43F555555555555C53F82922EB131
:101FC000C5B8B33F59018D1B6C06E63FC88A599CC2
:101FD000E52A00404B2D8A1C273A034000000000F0
:101FE0002DE9F84F1D465342134325F00049DFF811
:101FF000C8C149EAD3736345144606460F4626D83E
:10200000C0F1000848EA000821F0004A4AEAD878FE
:10201000E04503468B461AD805F1404808F580187C
:1020200058EA0208AE4643D04FEAA57808F0020805
:102030005AEA030348EAD17811D1B8F1020F55D01A
:10204000B8F1030F09D14AA1D1E9000105E03246F8
:102050003B46204629461FF093FEBDE8F88F59EA1B
:10206000020329D0E1452ED0E24525D0AAEB09098B
:102070004FEA2959B9F13C0F3CDC002D3EDA19F149
:102080003C0F3BDA00200021B8F1010F4ED0B8F12F
:10209000020F3ED0B8F1000FDFD037A3D3E9002301
:1020A0001FF06CFE36A3D3E900231FF067FED4E7D0
:1020B000BDE8F84FFEF7E4BCBBF1000F12DB32A124
:1020C000D1E90001C9E7CA4534D0B8F1020F0DD0FB
:1020D000B8F1030FB7D0B8F1010F4FF0000036D0C0
:1020E0000021BAE72AA1D1E90001B6E724A1D1E98C
:1020F0000001B2E724A1D1E90001C5E722462B4641
:102100003046394620F01CF91CF04EFFFEF7B8FCB3
:10211000BAE719A3D3E900231FF030FE02460B46AD
:1021200017A1D1E900011FF029FE96E701F1004354
:10213000194692E7B8F1020F14D0B8F1030F0DD091
:10214000B8F1010F06D014A1D1E9000185E74FF0E5
:10215000004182E712A1D1E900017EE712A1D1E995
:1021600000017AE712A1D1E9000176E7AFF3008020
:10217000182D4454FB2109C0075C143326A6A13C4A
:10218000182D4454FB210940182D4454FB21F93FDC
:10219000182D4454FB21F9BF182D4454FB21E93F6D
:1021A000182D4454FB21E9BFD221337F7CD902C0D2
:1021B000D221337F7CD902400000F07F0000000074
:1021C00043422DE9F047034321F000463C4A46EAEA
:1021D000D373934204460D462AD8964240D0394BD9
:1021E0009E428A462EDD384B9E4235463FDD3346C1
:1021F000024631461FF0C4FD224606460F462B46D6
:1022000000202F491FF0BAFD02460B4630463946E2
:1022100020F096F8FEF7C8FE00222C4B1FF066FF58
:10222000BAF1000F0CDA01F100431946BDE8F0875E
:1022300002460B461FF0A2FD02460B4620F080F836
:10224000BDE8F0871CA3D3E900231FF099FD00220D
:10225000002320F0DBF948B120462946BDE8F0878D
:102260000022002320F06CF8BDE8F08735462246B6
:102270002B46204629461FF083FD22462B46064664
:102280000F461FF033FF2246804689462B4600202A
:102290000B491FF073FD02460B464046494620F0AD
:1022A0004FF832463B461FF06BFDFEF77DFE0022E5
:1022B000064B1FF01BFFB3E79C7500883CE4377E9C
:1022C0000000F03FFFFF2F3EFFFFDF3F0000E03F39
:1022D0002DE9F8434E4B21F000449C4206460F4640
:1022E0001BDC4C4B9C4222DD4B4B9C4254DD4B4B48
:1022F0009C4246DD4A4B9C426FDD01339C4269D0D3
:1023000041A3D3E90023104619461FF0EFFE06460D
:102310000F4630463946BDE8F88302460B461FF0AB
:10232000E5FE06460F4630463946BDE8F8831CF008
:102330003BFE01F0F9FE00223A4B804689461FF031
:102340001FFDB4F1725F06460F46ECDB42464B467A
:10235000404649461FF0CAFE32463B4604460D46FB
:10236000304639461FF00CFD02460B4620462946F2
:102370001FF0E6FF00222B4B1FF002FD06460F4622
:10238000D1E71CF011FE00F053F80022264B1FF09D
:10239000ADFE06460F46C6E71CF006FE00F048F804
:1023A0000022214B06460F461FF0A0FE324604468F
:1023B0000D463B4600201C491FF0C2FF02460B465B
:1023C000204629461FF0DCFC06460F4630463946BB
:1023D000BDE8F883154B984292D8304639461CF038
:1023E000E3FD0022104B1FF081FE00F021F80022D7
:1023F00004460D460C4B1FF079FE22462B461FF07B
:1024000075FE06460F468EE79C7500883CE4377ED5
:10241000FFFFEF7F422ED63FFFFF3540412E864023
:10242000CD3386400000F03F0000E03F7DF8B98FDB
:102430002DE9F047B04F21F00042BA4284B0044683
:102440000D464FEAD17610D9AC4FBA4240F28A809D
:10245000C1F313030343024640F0F180002E7ED007
:102460000020002104B0BDE8F087A54B9A4200F29D
:10247000B680A44B9A4240F2D1804FF0000A224627
:102480002B46204629461FF031FE85A3D3E90023C1
:1024900006460F461FF02AFE83A3D3E900231FF050
:1024A0006DFC32463B461FF021FE81A3D3E9002399
:1024B0001FF066FC32463B461FF018FE7EA3D3E9B0
:1024C00000231FF05BFC32463B461FF00FFE7CA34F
:1024D000D3E900231FF054FC32463B461FF006FEB2
:1024E00002460B46204629461FF048FC02460B4692
:1024F00006460F46204629461FF0F8FD80468946CD
:10250000BAF1000F00F0AB8032463B4600204FF09E
:1025100080411FF033FC02460B46404649461FF0FF
:102520000FFF02460B46DDE902011FF027FCDDE943
:1025300000231FF023FC0B460246734900201FF0C6
:102540001DFC6FF47F739A4580F2A3800AF57A7AB6
:1025500001EB0A5100224FF0B8731FF0C7FD04B021
:10256000BDE8F08758A3D3E9002320F04FF80028F6
:102570006BD157A3D3E900232046294620F028F841
:1025800000287FF46DAF614953A3D3E9002301EB29
:10259000C606204629461FF0A9FDD6E900231FF0F4
:1025A000EFFB20F053F882461FF036FD4CA3D3E931
:1025B000002306460F461FF099FD02460B462046B3
:1025C00029461FF0DBFB48A3D3E90023CDE9000136
:1025D000304639461FF08AFDCDE9020115E04C4B2B
:1025E0009A42D0D84B4BF4002344D3E900231FF088
:1025F000C5FB494B234493ED007BCDE900018DEDF4
:10260000027BC6F1010AAAEB060ADDE90223DDE935
:1026100000011FF0B3FB04460D4630E734A3D3E9B5
:1026200000231FF0ADFB0022374B1FF0EFFFA8B3D4
:10263000204629460022344B1FF0A2FB8FE70B46B1
:102640001FF09EFB04B0BDE8F08729A3D3E9002367
:10265000104619461FF04AFD04B0BDE8F087304629
:10266000394600224FF080431FF088FB02460B469C
:10267000404649461FF064FE22462B461FF07EFB73
:1026800002460B46002020491FF078FB04B0BDE84D
:10269000F08701EB0A5104B0BDE8F0878246EEE610
:1026A000D0A4BE726937663EF16BD2C541BDBB3E58
:1026B0002CDE25AF6A56113F93BDBE166CC1663F36
:1026C0003E5555555555C53FEF39FAFE422E8640C9
:1026D00051302DD5104987C0FE822B654715F73F35
:1026E0000000E0FE422EE63F763C7935EF39EA3DC8
:1026F0009C7500883CE4377E412E8640FFFFEF7FCB
:10270000422ED63FFFFF2F3E0000F03F5035020023
:10271000B1A2F03F603502007035020000000000F9
:102720002DE9F04FB1F5801F85B006460F460B46E8
:1027300080F2D08021F00042024300F0DA800029CC
:10274000C0F2E9800022D64B1FF0D0FCD54A0B46E0
:10275000934206460F466FF0350E00F3C180C3F377
:10276000130505F5152C0CF6647C0CF4801C8CF01C
:102770007F5282F440121C1542EA0507A4F2FF348E
:1027800074440022C84B3046394604EB1C541FF0F9
:10279000F5FAAB1CC3F31303022B82468B464FF0B2
:1027A000000240F3AF804FF080431FF0E9FA024689
:1027B0000B46504659461FF0C3FD064620460F46BD
:1027C0001FF02AFC3246CDE902013B46304639462D
:1027D000CDE900671FF08AFC02460B468046894619
:1027E0001FF084FC9AA3D3E9002306460F461FF08E
:1027F0007DFC99A3D3E900231FF0C2FA32463B4681
:102800001FF074FC96A3D3E900231FF0B9FA3246F7
:102810003B461FF06BFC94A3D3E900231FF0B0FAF2
:1028200042464B461FF062FC91A3D3E90023804649
:102830008946304639461FF059FC8FA3D3E900235F
:102840001FF09EFA32463B461FF050FC8CA3D3E9A2
:1028500000231FF095FA32463B461FF047FC0B461B
:102860000246494640461FF08BFAA5F5C223C5F53E
:10287000D725A3F27A4351351D43002D06460F4656
:1028800040F387800022894B504659461FF02EFCAA
:1028900052465B461FF02AFC02460B46804689469C
:1028A000304639461FF06CFADDE900231FF01EFCAC
:1028B00006460F46002C40F0818002460B464046FB
:1028C00049461FF05BFA02460B46504659461FF038
:1028D00055FA0BE0734A93424FF0000E7FF73FAF7B
:1028E00032463B46304639461FF04AFA05B0BDE84D
:1028F000F08F0022002300206D491FF021FD05B05C
:10290000BDE8F08F00231FF059FE60B1002C7CD190
:1029100000200021EAE702461FF030FA00220023DF
:102920001FF00EFDE2E758A3D3E9002350465946B5
:102930001FF0DCFB02460B4600205C491FF01EFA2C
:10294000524606460F465B46504659461FF0CEFBA0
:1029500002460B46304639461FF0C8FB06460F4676
:102960002CB320461FF058FB49A3D3E9002380462F
:1029700089461FF0BBFB48A3D3E9002304460D465C
:10298000404649461FF0B2FB02460B4630463946E8
:102990002CE002460B46504659461FF0EFF9DDE9A0
:1029A00000231FF0A3FB06460F46002C47D13246FA
:1029B0003B46504659461FF0E1F997E734A3D3E967
:1029C0000023DDE902011FF091FB33A3D3E90023CB
:1029D00004460D46DDE902011FF088FB32463B4606
:1029E0001FF0CEF902460B46404649461FF0C6F995
:1029F00052465B461FF0C2F902460B462046294666
:102A00001FF0BCF905B0BDE8F08F20461FF004FBB5
:102A10001FA3D3E9002306460F461FF067FB1EA342
:102A2000D3E9002304460D46304639461FF05EFBCD
:102A300002460B46204629461FF0A2F956E7DDE97B
:102A4000028913A3D3E900234046494691E700BF1A
:102A500044523EDF12F1C23FDE03CB966446C73FCD
:102A6000599322942449D23F935555555555E53FE6
:102A70009FC678D0099AC33FAF788E1DC571CC3FF1
:102A800004FA97999999D93F555555555555D53FBC
:102A90000000E0FE422EE63F763C7935EF39EA3D14
:102AA00000005043FFFFEF7F0000F03F0000E03FD9
:102AB000000050C300000000B1F5801F2DE9F8436D
:102AC00004460D460B4619DA21F00042024359D064
:102AD00000295FDB00223A4B1FF008FB394A0D4604
:102AE0002B46934204466FF035010CDD22462B46FF
:102AF000204629461FF044F9BDE8F883314A934245
:102B00004FF00001F2DC1815A0F2FF3008444FEA44
:102B1000D0794844C3F313081FF07EFAC9F57F73D8
:102B2000033348EA035506460F4620462946FFF779
:102B3000F7FD1DA3D3E90023804689463046394678
:102B40001FF0D4FA1AA3D3E9002304460D464046E9
:102B500049461FF0CBFA02460B46204629461FF095
:102B60000FF915A3D3E9002304460D463046394634
:102B70001FF0BCFA02460B46204629461FF000F91A
:102B8000BDE8F8830022002300200F491FF0D8FB86
:102B9000BDE8F88302461FF0F1F8002200231FF081
:102BA000CFFBA9E7AFF30080362BF111F3FE593DBF
:102BB0000EE526157BCBDB3F00609F501344D33FCF
:102BC00000005043FFFFEF7F000050C300000000F3
:102BD0002DE9F047CA4B21F000479F4290B0804654
:102BE000894640F38F80C74B9F420C46924626DCB5
:102BF0000029B9A3D3E9002340F38F801FF0BEF86A
:102C0000C14B9F4204460D4600F04781B4A3D3E96F
:102C100000231FF0B3F802460B46CAE90023204602
:102C200029461FF0ABF8AEA3D3E900231FF0A6F8A6
:102C30000125CAE90201284610B0BDE8F087B34B70
:102C40009F4240F38980B24B9F4200F31C813D15A7
:102C5000A5F21645A7EB055319461F4606461FF079
:102C6000F5FC1FF0D9F98046894642464B4630466E
:102C70003946CDE90A891FF081F80022A54B1FF0E3
:102C800035FA894680461FF0E1FC1FF0C5F906467B
:102C90000F4632463B4640464946CDE90C671FF099
:102CA0006DF800229B4B1FF021FA00220023CDE992
:102CB0000E011FF083FC002800F0608100233046E5
:102CC000394600221FF07AFC002814BF012302239A
:102CD000914A019202212A4600910AA8514600F029
:102CE00087FB002C054614DADAF80420DAF80C30F9
:102CF00002F1004203F100434542CAF80420CAF839
:102D00000C3006E000200021C2E90089C2E902017E
:102D10000025284610B0BDE8F0871FF031F87A4B47
:102D20009F4204460D4600F00B816DA3D3E90023BA
:102D30001FF026F802460B46CAE900232946204622
:102D40001FF01CF866A3D3E900231FF019F84FF019
:102D5000FF35CAE90201DCE71CF026F962A3D3E9DA
:102D60000023804689461FF0C1F900226B4B1FF0FB
:102D700007F81FF06BFC05461FF04EF956A3D3E988
:102D80000023CDE906011FF0B1F902460B4640468B
:102D900049461EF0F3FF52A3D3E90023804689463B
:102DA000DDE90601CDE902891FF0A0F91F2D0246D9
:102DB0000B46CDE9042340F3B380DDE90423DDE9CC
:102DC00002011EF0DBFF804689463F15C9F30A5316
:102DD000FB1A102B40F3B18045A3D3E90023DDE9B2
:102DE00006011FF083F98046894602460B46DDE95D
:102DF00002011EF0C3FF02460B46DDE90201CDE9E8
:102E000008231EF0BBFF42464B461EF0B7FF3AA315
:102E1000D3E9002380468946DDE906011FF066F903
:102E200042464B461EF0AAFF0B46CDE9040102467E
:102E3000DDE908011EF0A2FFC1F30A53FF1A312F8A
:102E40008046894600F39C809DED087BCAE9008995
:102E50008DED027B42464B46DDE902011EF08EFFFE
:102E6000DDE904231EF08AFF002CCAE90201BFF647
:102E700050AF09F1004401F100436D42CAE90084FA
:102E8000CAE9020345E702460B461EF077FF00251C
:102E9000CAE90201CAE900013BE715A3D3E900230F
:102EA0001EF06CFF14A3D3E900230D4604461EF068
:102EB00065FF02460B46CAE90023294620461EF05C
:102EC0005DFF0DA3D3E900231EF058FF0125CAE9D9
:102ED00002011EE7AFF3008000004054FB21F93FE0
:102EE0003163621A61B4D03D83C8C96D305FE43F7D
:102EF0000000601A61B4D03D7370032E8A19A33BA1
:102F0000FB21E93F7BD90240FB21F93FFB213941FD
:102F1000FFFFEF7F00007041A45F02000000E03F70
:102F2000404649461EF02AFF394B6A1E804653F838
:102F30002230BB4289463FF448AFCAE9008989E79D
:102F40002BA3D3E900231EF01BFF2BA3D3E90023FF
:102F50000D4604461EF014FF02460B46CAE9002344
:102F6000294620461EF00AFF23A3D3E900231EF0C2
:102F700007FF4FF0FF35CAE90201CAE60323A7E6BF
:102F80001FA3D3E90023DDE906011FF0AFF80646D1
:102F90000F4602460B46DDE908011EF0EFFE8046B3
:102FA000894602460B46DDE90801CDE902891EF09B
:102FB000E5FE32463B461EF0E1FE13A3D3E90023B3
:102FC00006460F46DDE906011FF090F832463B4603
:102FD0001EF0D4FE02460B4640464946CDE9042386
:102FE0001EF0CCFE80468946A7E700BFAFF3008005
:102FF0000000601A61B4D03D7370032E8A19A33BA0
:103000000000002E8A19A33BC14920259A837B39F1
:10301000245F020000000000574A2DE9F84F21F01C
:103020000048904506460F462CDC544B0029B4BF9F
:10303000534D544D98454FF0000411DC524B9845C8
:1030400026DC4BA3D3E900231EF09AFE00224F4B4F
:103050001FF0DCFA002840D030463946BDE8F88F32
:103060004B4B984530DD4B4B984568DD0133984517
:1030700062D0304639463EA3D3E900231FF036F82C
:10308000BDE8F88F02460B461EF07AFEBDE8F88FC9
:103090001BF08AFF01F048F83F4B984506460F4663
:1030A00023DD0022394B1EF06BFE02460B463046F4
:1030B00039461FF045F932463B461EF061FE224676
:1030C0002B461FF013F8E1E71BF06EFFFFF7B0F996
:1030D00022462B461FF00AF8D8E7304639461BF047
:1030E00063FF01F021F806460F4632463B46304664
:1030F00039461EF045FE324682468B463B463046F8
:1031000039461EF0F3FF0022804689461F4B3046A9
:1031100039461EF035FE02460B46404649461FF032
:103120000FF902460B46504659461EF027FE22462E
:103130002B461EF0DBFFA9E7184B984299D8304682
:1031400039461BF031FF00220E4B1EF0CFFFFFF778
:103150006FF906460F4602460B46204629461EF0EA
:10316000C5FF32463B461EF0C1FF8FE7AFF300803C
:103170003374AC3C1F7BAC7FFFFFEF7FFFFF35401C
:103180000000E0BF0000E03FFFFF2F3E0000F03FE7
:10319000412E8640CD338640FFFFEF3F7DF8B98F4B
:1031A0002DE9F04F21F00048B8F1795F85B006466F
:1031B0000F4692469B466BDA1FF048FA002800F053
:1031C000E18032463B46304639461EF08FFF74A3FD
:1031D000D3E9002304460D461EF088FF72A3D3E90D
:1031E00000231EF0CDFD22462B461EF07FFF70A36C
:1031F000D3E900231EF0C2FD22462B461EF076FFC7
:103200006DA3D3E900231EF0BBFD22462B461EF022
:103210006DFF6BA3D3E900231EF0B0FD22462B46C1
:103220001EF064FF68A3D3E900231EF0A9FD224627
:103230002B461EF05BFFCDE900010022664B2046C5
:1032400029461EF053FFDDE90023804689462046CB
:1032500029461EF04BFF524604460D465B4630465B
:1032600039461EF043FF02460B46204629461EF013
:1032700085FD02460B46404649461EF07FFD02464C
:103280000B46002055491EF079FD05B0BDE8F08FD2
:1032900002460B461EF02AFF41A3D3E90023044651
:1032A0000D461EF023FF40A3D3E900231EF068FD66
:1032B00022462B461EF01AFF3DA3D3E900231EF041
:1032C0005DFD22462B461EF011FF3BA3D3E90023F0
:1032D0001EF056FD22462B461EF008FF38A3D3E908
:1032E00000231EF04BFD22462B461EF0FFFE36A3A8
:1032F000D3E900231EF044FD2B4622461EF0F6FEC5
:10330000374B9845CDE9000197DD364B98453EDCBB
:10331000A8F50013002200203049904699461EF07F
:103320002DFDCDE9020100222B4B204629461EF03F
:10333000DDFE42464B461EF021FDDDE900238046BE
:103340008946204629461EF0D1FE524604460D46C7
:103350005B46304639461EF0C9FE02460B46204603
:1033600029461EF00BFD02460B46404649461EF01C
:1033700005FD02460B46DDE902011EF0FFFC05B02B
:10338000BDE8F08F1549002005B0BDE8F08F9FED36
:10339000107B4FF000088DED027BDFF84C90C2E708
:1033A000D43888BEE9FAA8BDC4B1B4BD9EEE213EB2
:1033B000AD529C804F7E923E9015CB19A001FA3EF3
:1033C0007751C1166CC1563F4C5555555555A53FC3
:1033D000000000000000E73F0000E03F0000F03F79
:1033E0003233D33F0000E93F0000D23F000000002D
:1033F0002DE9F04FADF5197DBE4CA29EBE4D54F89F
:1034000026600793D41E85FB0475E417C4EBA5045E
:1034100024EAE4741D46631CA3EB8303013D02EB25
:10342000C3030593731904960994019503900B91B6
:10343000A4EB05071AD43B44002400255E1C0DF1C3
:103440008008DDF88C9208E059F827001EF0E4FDB2
:103450000137B742E8E8020108D0002FF4DA01375B
:1034600020462946B742E8E80201F6D1049B002B2A
:10347000079B4FEAC30302932ADB039A20A902EBBE
:10348000030801EB0309049B72AA02EBC30B0DF5C1
:10349000E07A019B002B4FF000064FF0000711DB94
:1034A000039C4D4675E90223F4E802011EF01EFE5E
:1034B00002460B46304639461EF062FC444506463D
:1034C0000F46EFD1EAE80267DA4509F10809E0D1D1
:1034D000DDE90204049920448B0082460BA8A3F185
:1034E0000802C31808930CAB13440A938B4698AB9D
:1034F00003EBCB03BBF1000F53E9284529DD70AB8B
:1035000003EBCB080DF1300900227C4B2046294605
:103510001EF0ECFD1FF09AF81EF07EFD0022784BA5
:1035200006460F461EF0E2FD02460B46204629469F
:103530001EF024FC1FF08AF878E9022349F8040BF6
:10354000394630461EF01CFC70AB984504460D46CB
:10355000DAD1DDF81490204629464A4601F030F8C9
:1035600000224FF07F5304460D461EF0BFFDFDF7CD
:103570009BFC0022634B1EF0B9FD02460B46204621
:1035800029461EF0FBFB0D4604461FF05FF88046FF
:103590001EF042FD0B460246294620461EF0EEFB79
:1035A0004B46002B06460F4640F3E1800BF1FF32FD
:1035B0000CA9C9F1180351F8225045FA03F101FA98
:1035C00003F30CA8EB1A40F82230C9F11705884420
:1035D00043FA05F5002D2CDDBBF1000F08F10108C1
:1035E00040F381820C9C002C40F0A780BBF1010FBE
:1035F0000AD00CA9012251F8044F531C002C40F0B2
:103600009E809B451A46F6D1059B002B0EDD012BB3
:1036100000F0D980022B09D10BF1FF320CAB0CA9C1
:1036200053F82230C3F3150341F82230022D00F085
:10363000AF8000220023304639461EF0BFFF00282D
:1036400000F05382049B0BF1FF394B4510DC0BF16A
:1036500080430CAA013B089802EB8303002253F835
:103660000419834242EA0102F9D1002A40F0B680EF
:10367000049B0CAA013B52F82330002B40F0A180A0
:103680000A9A012352F8041901330029FAD05B4445
:103690000BF10109994506934CDC099A079909EB4E
:1036A000020801EB0B0508F1804802EB030BA39B1A
:1036B00008F1FF3803EB880870AB03EBC909A39B43
:1036C00020A903EB8B0301EBC505029358F8040F07
:1036D0001EF0A2FC0B4601990246002905F1080BD9
:1036E000C5E900234FF000064FF000071CDB039CE8
:1036F0000CE000BF44640200ABAAAA2A0000703E9E
:10370000000070410000204075E90223F4E8020146
:103710001EF0ECFC02460B46304639461EF030FBEC
:10372000544506460F46EFD1029B9845E9E80267EB
:103730005D46CBD1DDF818B0D9E6012300220CA9F3
:10374000C4F180749B4541F822400EDD51F82320DE
:1037500001EB8B0001EB83036FF07F4100E01A68FF
:103760008A1A43F8042B8342F9D101244CE706D18D
:103770000BF1FF330CAA52F82350ED152AE7002273
:103780007B4B1EF039FF002840F0A381054650E72F
:1037900032463B46002077491EF0F0FA06460F46B7
:1037A000002C3FF446AF059A7249002000F008FF54
:1037B00002460B46304639461EF0E0FA06460F46F2
:1037C00037E7012363E70BF1FF320CAB0CA953F889
:1037D0002230C3F3160341F8223027E70CAB059AD9
:1037E00053F82930183ACDE9068505926BB909F1ED
:1037F0008043013B0CA901EB830353F8041909F141
:10380000FF39183A0029F8D00592059A5949002045
:1038100000F0D6FEB9F1000F04460D46C0F2C0819B
:103820004FEAC90370AA02EB030808930CAB03EB41
:103830008906DFF844B14FF0000A08F108070436A2
:1038400056F8040D1EF0E8FB22462B461EF04EFCF7
:103850005B4667E902015246204629461EF046FCB7
:103860000CAB9E4204460D46EAD148AB039301934C
:10387000CDF8149009F10103DDF810900293C346CE
:103880004FF0000AB9F1000FC0F22A81DFF8EC8096
:103890005D4635A3D3E9002300260027002403E07A
:1038A000544510DCF8E80223F5E802011EF01EFC86
:1038B00002460B46304639461EF062FA0134A145F5
:1038C00006460F46ECDA019BE3E802670193029B90
:1038D0000AF1010A9A45ABF1080BD3D1A29BDDF89E
:1038E0001490032B39D8DFE813F0D9000600060046
:1038F0004D0048AB0393B9F1000F4FF000004FF0BB
:10390000000109DB039D05EBC904083474E90223B7
:103910001EF036FAA542F9D1079B002B40F01E811C
:103920000B9BC3E900010B4603990246D1E9000154
:103930001EF024FAB9F1000F0CDD4AAD0124013468
:10394000F5E802231EF01CFAA145F8DA079B002BCC
:1039500040F014810B9BC3E90201069B03F00700B2
:103960000DF5197DBDE8F08F00000040FB21F93F07
:103970000000E03F0000F03F0000703E983502007C
:1039800048AB0393B9F1000F40F32781039ACDF8B8
:1039900010904FEAC9030193D318D3E900AB09F1A2
:1039A0000053013B02EBC9080293914678E9026794
:1039B00052465B46304639461EF0E2F904460D4653
:1039C00002460B46304639461EF0D8F952465B4651
:1039D0001EF0D6F9C145A246AB46C8E90201C8E9C6
:1039E0000045E3D1DDF81090B9F1010F40F3F58007
:1039F000019B039A02991344C900D3E9006701F1BE
:103A0000080A019192440DF5947B7AE902893246C5
:103A10003B46404649461EF0B3F904460D46024671
:103A20000B46404649461EF0A9F932463B461EF079
:103A3000A7F9D34526462F46CAE90201CAE900453F
:103A4000E3D1019C039B1034002000211C4403F1AE
:103A5000100574E902231EF093F9A542F9D1039CE5
:103A6000079ED4E90023D4E90245002E00F08A80A5
:103A700003F1004701F100430B99C1E90403069BE0
:103A80002646944605F1004403F00700C1E900C74B
:103A9000C1E902640DF5197DBDE8F08F089C039D16
:103AA0000834002000212C4474E902231EF068F938
:103AB000A542F9D1079B13B101F1004319460B9BB5
:103AC000C3E90001069B03F007000DF5197DBDE871
:103AD000F08FBBF1000F08F1010874DD022581E5CC
:103AE00000260027EFE600248EE5CDE90685059D3A
:103AF000304639466A4200F063FD0022384B0646E4
:103B00000F461EF079FD00B30022364B3046394691
:103B10001EF0ECFA1EF09AFD04461EF07DFA00221B
:103B20002F4B1EF0E3FA0B460246394630461EF094
:103B300025F91EF08BFD0BF101090CAB183543F88C
:103B40002B00059543F829405FE6304639461EF0C4
:103B50007DFD0CABD94643F82B0056E60B9C01F1DA
:103B60000043C4E900030B4603990246D1E9000172
:103B70001EF004F9B9F1000F3FF7DFAE01F1004389
:103B80001946E7E60B9EC6E90023069BC6E9040139
:103B900003F00700C6E902450DF5197DBDE8F08F79
:103BA000A29B032B3FF6D9AE01A252F823F000BF2F
:103BB000C13B0000F3380000F338000081390000F9
:103BC0000020002176E732463B46002006491EF0E1
:103BD000D5F8022506460F462BE5002000213EE7DA
:103BE000000070410000703E0000F03F0000000047
:103BF0002DE9F04F21F00046B6F1795F85B004461B
:103C00000D469046994604DA1EF020FD002800F08B
:103C1000858022462B46204629461EF067FA064636
:103C20000F4602460B46204629461EF05FFA41A386
:103C3000D3E9002382468B46304639461EF056FAB9
:103C40003EA3D3E900231EF099F832463B461EF00E
:103C50004DFA3CA3D3E900231EF092F832463B46CE
:103C60001EF044FA39A3D3E900231EF087F8324648
:103C70003B461EF03BFA37A3D3E900231EF080F841
:103C80000E9BCDE900019BB30022294B40464946DB
:103C90001EF02CFADDE90023CDE902015046594619
:103CA0001EF024FA02460B46DDE902011EF066F81A
:103CB00032463B461EF01AFA42464B461EF05EF86C
:103CC00019A3D3E9002306460F46504659461EF075
:103CD0000DFA02460B46304639461EF051F80246B0
:103CE0000B46204629461EF049F805B0BDE8F08F86
:103CF00002460B46304639461EF0F8F90AA3D3E9CE
:103D000000231EF03BF852465B461EF0EFF92246B8
:103D10002B461EF035F805B0BDE8F08F2046294649
:103D200005B0BDE8F08F00BF495555555555C53F05
:103D30000000E03F7CD5CF5A3AD9E53DEB9C2B8A79
:103D4000E6E55A3E7DFEB157E31DC73ED561C11978
:103D5000A0012A3FA6F810111111813F00000000B8
:103D60002DE9F04FC04C21F0004687B0A6428246B4
:103D70008B460F46CDE900231ADC1EF067FC0028B5
:103D80003FD1109B524601331343334300F0B781B8
:103D9000109B012B00F0C0815B460020B3491EF050
:103DA000CFFA04460D462046294607B0BDE8F08FFD
:103DB000AF4B9E4225DD002909DADDE900452246A8
:103DC00005F10043CDE900230BF100418B4652463B
:103DD0005B4685A1D1E900011DF0D0FFDDE900239C
:103DE00004460D4682A1D1E900011DF0C7FF9FEDF9
:103DF000827B22462B468DED007B1DF0C1FF824663
:103E00008B4652465B46504659461EF06FF90246B5
:103E10000B46804689461EF069F9424604460D4627
:103E20004B46504659461EF061F975A3D3E900236D
:103E3000CDE90201204629461EF058F972A3D3E9C4
:103E400000231DF09DFF22462B461EF04FF970A364
:103E5000D3E900231DF094FF22462B461EF046F9BD
:103E60006DA3D3E900231DF08BFF22462B461EF0E5
:103E70003DF96BA3D3E900231DF082FF22462B46B8
:103E80001EF034F968A3D3E900231DF079FF424600
:103E90004B461EF02BF966A3D3E90023CDE90401BC
:103EA000204629461EF022F963A3D3E900231DF022
:103EB00067FF22462B461EF019F961A3D3E90023C0
:103EC0001DF05EFF22462B461EF010F95EA3D3E9DB
:103ED00000231DF055FF22462B461EF007F95CA378
:103EE000D3E900231DF04CFF22462B461EF0FEF8BE
:103EF00059A3D3E900231DF043FF02460B46DDE939
:103F000004011DF03DFFDDE902231EF0EFF8DDE9BD
:103F1000004522462B461DF033FF42464B461EF01D
:103F2000E5F822462B461DF02BFF4DA3D3E90023D5
:103F300004460D46DDE902011EF0D8F822462B4664
:103F40001DF01EFF0B4602468046894650465946E4
:103F50001DF016FF464B9E4204460D4600F38C8032
:103F6000109B012B3BD002460B4600203F491EF020
:103F7000E7F9002406460F462046294652465B468E
:103F8000CDE90067CDE9020100941DF0F7FEDDE9FF
:103F900000AB02460B46404649461DF0EFFE524636
:103FA0005B461EF0A3F8524604460D465B46DDE92B
:103FB00002011EF09BF800222E4B1DF0E1FE02468E
:103FC0000B46204629461DF0DBFE32463B461EF0DE
:103FD0008DF852465B461DF0D3FE04460D46204642
:103FE000294607B0BDE8F08F182D4454FB21E93F66
:103FF000075C143326A6813C00000000000000008E
:10400000D47ABF74702AFB3EE9A7F0320FB8123F92
:1040100068108D1AF726303F1583E0FEC8DB573F46
:1040200093846EE9E326823FFE41B31BBAA1AB3F06
:10403000735360DBCB75F3BEA69237A0887E143F26
:104040000165F2F2D844433F280356C9226D6D3F03
:1040500037D60684F464963F7AFE10111111C13FE1
:10406000635555555555D53FFFFF2F3E0000F0BF16
:104070002794E53F0000F03F10981DF0CDFF224649
:10408000CDE900012B46204629461EF02FF8DDE938
:104090000023CDE90201204629461DF071FE0246AB
:1040A0000B46DDE902011EF04BF942464B461DF07E
:1040B00065FE02460B46504659461DF05FFE02461D
:1040C0000B461DF05DFE02460B46DDE900011DF0CA
:1040D00055FE0446B81700F00200C0F101000D467D
:1040E0001DF09AFF02460B46204629461DF0FEFFB2
:1040F00004460D462046294607B0BDE8F08F5046DD
:1041000059461AF051FF02460B46002004491EF0A2
:1041100017F904460D4662E754465D465FE700BF67
:104120000000F03F000000002DE9F04FCC4A21F0E4
:104130000043934285B082468B460C4620D9C94A3B
:10414000934200F2D780002C80F2A481ACA3D3E983
:104150000023504659461DF013FE002200231EF096
:1041600037FA002840F0D180A7A3D3E900235046B6
:1041700059461DF0BBFF02460B460020BA4994E1A8
:10418000BA4A934200F2E580B94A934240F22E8146
:10419000002301930022B74B504659461DF0A6FF5D
:1041A00006460F4602460B46504659461DF09EFFF6
:1041B00097A3D3E9002304460D461DF097FF96A36D
:1041C000D3E900231DF0DCFD22462B461DF08EFFB7
:1041D00093A3D3E900231DF0D1FD22462B461DF009
:1041E00085FF91A3D3E900231DF0CAFD22462B468B
:1041F0001DF07CFF8EA3D3E900231DF0BFFD2246F6
:104200002B461DF073FF00229B4B1DF0B9FD80462D
:10421000894602460B46304639461DF067FF024686
:104220000B46002095491DF0A9FD064602460B46A7
:104230000F46404649461DF0A1FD3246804689465C
:104240003B46504659461DF051FF02460B460020A2
:104250008B491DF093FD02460B46404649461EF031
:104260006FF822462B461DF041FF019E02460B4689
:10427000002E4DD0DDE9026732463B461DF07EFD43
:1042800052465B461DF032FF32463B461DF076FD3E
:104290002B4622461DF072FD019B013306460F4658
:1042A00000F02381019B012B7BD0019A531C392BF9
:1042B0004FEA025500F22881019A132A40F35581F2
:1042C000019BC3F57F740334002223051DF058FDC4
:1042D00002460B46504659461DF050FD0022664BE3
:1042E0001DF04EFD824605EB010B5046594605B0C8
:1042F000BDE8F08F634A93421BD9C1F31303034314
:10430000024640F012810029EFDA00205E490DE0FC
:10431000504659461DF0EAFE22462B461DF02EFD62
:1043200002460B46504659461DF028FD05B0BDE833
:10433000F08F41A3D3E900231EF068F900283FF471
:1043400002AF3FA3D3E90023104619461DF0CEFE6D
:10435000ECE74E4A934200F2EC8000293AA3D3E9FD
:10436000002339DA1DF00CFD39A7D7E900674FF0BB
:10437000FF3380468946019332463B4640464946D4
:104380001DF0FCFC02460B4682468B4640464946E1
:104390001DF0F4FC32463B461DF0F0FCCDE9020175
:1043A000F8E600223A4B504659461EF011F9002813
:1043B00000F0CC805046594600222E4B1DF0E0FC08
:1043C00002460B46304639461DF0D8FC00224FF01D
:1043D00040431DF08BFEA9E71DF0D0FC0123804671
:1043E000894601931CA7D7E90067C5E714A3D3E961
:1043F00000231DF0C5FC02460B468FE7AFF300809B
:1044000059F3F8C21F6EA501FE822B654715F73FD1
:104410002DC3096EB7FD8ABE3952E686CACFD03E9B
:10442000B7DBAA9E19CE143F8555FE19A0015A3F4D
:10443000F41011111111A13FEF39FAFE422E8640FE
:104440009C7500883CE4377E0000E0FE422EE63F8B
:10445000763C7935EF39EABD763C7935EF39EA3D7E
:1044600079684340412E86400000E0BF422ED63F8F
:10447000FFFF8F3C0000E03F0000F03F00000840DD
:1044800000001840FFFFEF7F0000F0BFB1A2F03F37
:104490000000D0BF44A3D3E90023504659461DF085
:1044A00025FE02460B46002041491DF069FC1EF026
:1044B000CDF801901DF0B0FD37A3D3E900230646E7
:1044C0000F461DF013FE02460B46504659461DF09E
:1044D00055FC33A3D3E9002380468946304639464C
:1044E0001DF004FE06460F4646E702460B465046C0
:1044F00059461DF043FC00222D4B1DF0F7FD002214
:104500002B4B1DF03BFC11E752465B461DF036FC81
:1045100002460B46002027491DF030FC6B18194657
:104520000022244B1DF02AFC00E70B461DF028FC5E
:10453000FCE61DA3D3E900231DF0D8FD002C0246A4
:104540000B464FF00000AFDA1B49AEE732463B4660
:10455000504659461DF012FC02460B461DF010FC59
:104560000022144B1DF00CFCE0E64FF4001343FA5C
:1045700002F452465B461DF001FCC4F17F57002651
:1045800007F5401702460B46304639461DF0F6FB4C
:10459000A8E600BFAFF300800000E0FE422EE63F39
:1045A000763C7935EF39EA3DFE822B654715F73FBA
:1045B0000000E03F0000F03F0000E0BF000000000E
:1045C000F8B5C1F30A5304460D460E4617460BBB19
:1045D00021F00046034633431BD0354B00221DF02B
:1045E00085FD344B9F4204460D4635DBC1F30A532B
:1045F0000E46363B3B4440F2FE72934232DC002BC7
:1046000011DD26F0FF4626F4E00646EA0355204673
:104610002946F8BD40F2FF729342EBD102460B46A9
:104620001DF0AEFBF8BD13F1350F28DA4CF2503314
:104630009F4222462B460ADD19A1D1E900011DF057
:10464000F9FA17A3D3E900231DF050FDF8BD16A118
:10465000D1E900011DF0EEFA13A3D3E900231DF008
:1046600045FDF8BD22462B460DA1D1E900011DF004
:10467000E1FA0BA3D3E900231DF038FDF8BD26F0C5
:10468000FF4626F4E006363346EA0355204629461F
:104690000022094B1DF02AFDF8BD00BFAFF30080DA
:1046A0009C7500883CE4377E59F3F8C21F6EA50163
:1046B00000005043B03CFFFF0000903C10B5054C9B
:1046C000237833B9044B13B10448AFF300800123BE
:1046D000237010BD0818002000000000C46502000F
:1046E00008B5034B1BB103490348AFF3008008BD75
:1046F000000000000C180020C4650200154B002BC0
:1047000008BF134B9D46A3F5803A00218B460F4608
:104710001348144A121A04F0D9F80F4B002B00D09A
:1047200098470E4B002B00D0984700200021040032
:104730000D000D48002802D00C4809F04BFC1DF07C
:10474000AFFA2000290008F09FFD1DF095FA00BF88
:10475000000008000000022000000000000000002F
:104760000004002008200020D5DF00000000000029
:104770000048704716FCFFFF704700BF08B503688C
:10478000DB699847002814BF4FF40070002008BD73
:1047900010B588B06C4684E80F00BDF80020A2F583
:1047A0007A6292B2012340F6020104A815F054FF88
:1047B00008B010BD10B588B06C4684E80F00BDF895
:1047C0000020A2F57A6292B2012340F6030104A808
:1047D00015F042FF08B010BD10B5054B036003F1A2
:1047E00034020446C26012F021FD204610BD00BF15
:1047F000D835020010B5064B036003F134020446BD
:10480000C26012F013FD20461EF0A8F9204610BD2C
:10481000D835020010B5054B036003F1340204469D
:10482000C26012F003FD204610BD00BFD835020063
:1048300010B5064B036003F134020446C26012F067
:10484000F5FC20461EF08AF9204610BDD83502003E
:1048500038B5054610201EF088F92A6845600446E0
:10486000002352690360A36028469047034BA08150
:104870001A6822601C60204638BD00BF2418002042
:1048800010B5044604F0DAFCA368C31A312B01D832
:10489000A08910BD6368A0601A68184653699847DC
:1048A00080B2A08110BD00BF38B50446406AFFF752
:1048B000E7FFB4F92830002BACBFA0F50074C0F5B9
:1048C00000743221D82005F075FC4FF4FA710546CA
:1048D000D92005F06FFC641B401B640294FBF0F0D0
:1048E000B0F5007FA8BF4FF4007020EAE07038BD3B
:1048F00010B50446406AFFF7C3FFB4F92830002B17
:10490000AEBFA0F50070C0F500705B4298420BDCB2
:1049100094F82A2022B103EB4303B0EBA30F07DC8A
:10492000002084F82A0010BD012084F82A0010BD60
:10493000012010BD10B50446081ED8BF04F57A60EA
:1049400000F008FD20B10368BDE810409B6A1847DD
:10495000204600F093FD002814BF4FF400700020A3
:1049600010BD00BF2DE9F0410B4682B006464FF066
:10497000FF31184605F01EFC431C0CD0C0F3074362
:1049800006F57A67002B0546384614BF1C462024DE
:1049900000F0E0FC10B102B0BDE8F081ADB23146EC
:1049A000284600F0D5FD03460028F4D1A5F24C4678
:1049B000C72E5AD904F0F002102A00F08680202A6F
:1049C00000F08980302A00F0888040F223301E46B3
:1049D00004F0B0FB284600F0B3FC804624201EF013
:1049E000C4F804F00F0401234146CDE90046BAB2F1
:1049F000054612F03FFD3D4B2B603433EB60AC8835
:104A00000F2CC8D03A4E282037681EF0AEF810237D
:104A1000214600930122374B804610F021F93B6874
:104A200038465B6841469847002858D1AD883468BD
:104A30000F2DB0D028201EF098F81023294600939F
:104A400002222D4B064610F00BF9236831465B68B5
:104A50002046984700289ED0304610F035F9304661
:104A600002B0BDE8F0411EF079B84FF49671D52040
:104A700005F0A0FB632EC8BFA5F596668046C8BFAB
:104A8000C0F10008304600F05BFC1C4B1C6814B9F8
:104A90001DE02468DCB163689842FAD12C201EF036
:104AA00064F800266168BAB20123CDE900660546C4
:104AB00012F0E0FC124B6C6203F13402A5F828807E
:104AC00085F82A602B60EA6099E7012682E7FFF704
:104AD000BFFE0446E2E702267CE706467AE7404648
:104AE00010F0F2F840461EF039F89FE7D835020082
:104AF000941E0020B54700009147000024180020B4
:104B00001836020082B070B50C4684B0054649687C
:104B1000206802AC03C4039908AC481084E80C0078
:104B2000CB0745BF2A58029B029CD4580AAB2E18CB
:104B300093E803008DE8030008AB0CCB3046A04798
:104B400004B0BDE8704002B0704700BF82B000B54D
:104B500085B00DF1180C00218CE80C0080F81912BA
:104B6000012341F292020721684615F075FD05B058
:104B70005DF804EB02B07047F8B51C460B0A0F460F
:104B8000054616461AD1330C1DD1AA7805F10C0141
:104B9000881805F1FC031B1A04F1040C9C4516D877
:104BA000E4B28C54330A47708670C370AB78073414
:104BB00024F003041C44AC700430F8BD792004F0E8
:104BC000B9FA330CE1D0792004F0B4FADDE7002023
:104BD000F8BD00BF90F8193203B9704741F2920155
:104BE00007200FF0CBBD00BF10B52030FFF7C4FF8A
:104BF000044608B1204610BD7A2004F09BFA2046F6
:104C000010BD00BF30B50446C06885B018B1036858
:104C100000211B689847A068064903680294FC229B
:104C2000CDE9002104F120019D6904F58E73A847A8
:104C300005B030BDAD5000002DE9F047CB6833F032
:104C4000FF0384B021D10C7BA410012C01F11001D1
:104C500018DD5B4D5B4E5C4F012309E0B24267D02B
:104C6000BA4208BF80F81E320133DBB2A34209DA30
:104C700051F82320AA42F1D180F81B320133DBB274
:104C8000A342F5DB04B0BDE8F087B3F5000FF9D01F
:104C90004B7B90F81E229A425FD090F81B229A42DA
:104CA0004ED090F81C229A42ECD890F81D229A42DD
:104CB000E8D3CA8941F201139A42E3D191F80C80FA
:104CC00001F11004A044A045064689464FF00005B6
:104CD0004FF0010A0FD9637827781F2B49D9082F85
:104CE00055D0A7F10903012B64D97B1E062B4FD9A0
:104CF0000234A045EFD8D6F82432AB42C2D000240B
:104D0000012705E0B3B30134202C56D0D6F8243265
:104D100007FA04F22A4203EA0203F3D1002BF2D08D
:104D2000012340F60201A2B2684615F095FCEAE7BD
:104D300090F81C220AB980F81C3280F81D3293E7E3
:104D4000CB8941F28112934230D041F282129342D8
:104D500098D10B8AA0F8223294E7CB89B3F5845F0F
:104D600010D041F2811293428CD10B69C0F83432D9
:104D700088E7FEE70123A2B240F60301684615F07A
:104D80006BFCC0E70B699B0AA0F838327AE707276B
:104D900099F80D3096F81C229B1AC3EBC3033B44D1
:104DA000002BC4BF0AFA03F31D43A1E70B8AA0F846
:104DB000203267E719F06CFA97E7C6F8245261E7EA
:104DC000E536FA166EA0EA1D0636C61FF0B5044693
:104DD000C06885B018B1036801211B68984719F0B5
:104DE0003FFA206903685B689847002800F0B980A3
:104DF000002584F81A5247F6CD2619F023FAC4F894
:104E00002250C4F82650C4F82A50E585268419F0AB
:104E100031FAB4F81C3160624BF2CD329342A16298
:104E200049D0B34243D194F81E31002B43D004F54E
:104E30008E76FF2731462046FFF7FEFE94F82801C4
:104E400094F81E31C11D21F003018B4233DD021D98
:104E5000A51895F82851FF2D00F0AF8094F81F0198
:104E6000621820F0020084F81F0192F828E10EF188
:104E7000040288188342C0F2DA8001F10C0CB444B9
:104E8000634604F5927053F8045B40F8045FA3EBAB
:104E90000C05AA42F7DC0EF10703224423F00303BA
:104EA000A644194482F828718EF82D11C2E71946DC
:104EB0007A480FF0C7F894F81B12002958D0E3691C
:104EC00004F12006002B5DD040234FF402523046FF
:104ED000FFF752FE0546002800F0C880E369284627
:104EE00003F140021F685D689968D3F80CC0C0F8F0
:104EF0000CC01033934207604560816000F11000E0
:104F0000F0D10023E3618122082394F81B1230467C
:104F1000FFF732FE054610B97A2004F00BF923465C
:104F200003CB28606960304694F81B12012342F2DB
:104F30000102FFF721FE0546002800F09B8094F84F
:104F40003A32574AC3EB0323A2FB03235B092B70BE
:104F500094F81E32002B6ED12046FFF753FE05B0A9
:104F6000F0BD012384F81A3219F06CF905B0F0BDD8
:104F70000B460A462046FFF737FE2046FFF742FE63
:104F800005B0F0BD63692BB394F818529D4228BF59
:104F90001D4630462B468322FFF7EEFD06460028CD
:104FA0006CD02A463046A16902F0FEFAD4E90532F7
:104FB0002A445B1BC4E90532CEE7204490F82D114A
:104FC0008B427FF778AF8A42FFF648AF35480FF043
:104FD00039F870E794F81E1209B3D4F83432D4F8D3
:104FE000300283421BD294F81852C01A8542A8BFDF
:104FF00005462B4630468022FFF7BEFD06460028B8
:1050000048D0B4F838226910304606F0C5F8074693
:10501000C0B3D4F834022844C4F834029CE7012316
:1050200041F293020721684615F016FB9EE71E48E1
:105030000FF008F83FE704F001F9D4F82C22D4F877
:10504000283232B1C3EB03139B1A03441B09C4F883
:105050002832B4F83822C4F82C02C3F3552302FBDB
:1050600003F39B0A9B00C4F8303275E77A2004F002
:1050700061F833E77A2004F05DF860E77A2004F005
:1050800059F88EE72A463046394603F01FFCC4F82B
:10509000307261E77A2004F04DF8B2E75036020032
:1050A0001F85EB516836020084360200FFF78EBE82
:1050B00082B08DE80C0090F81A320BB902B070473C
:1050C00002B0FFF783BE00BFF8B51D46DB070446FC
:1050D0000F46164600D485BB7B2004F02BF8A3882E
:1050E000B34202D1E388AB4202D07C2004F022F824
:1050F00094F8193223BB63881BB1B4F822229A4278
:1051000019D96D08069AE26106FB05F6EC23B3FB9C
:10511000F5F313FB05F50123C4E9056784F818527C
:1051200084F81932FC22002104F1200003F0CEFBA8
:105130002046FFF74BFE0020F8BD002ACFD1CBE779
:105140007D2003F0F7FFD6E72DE9F04F83B0DDE9CE
:105150000C9ABDF83880002B3BD0B9F1000F35D048
:105160000F2902D1B8F1C00F33D1074628201D46C0
:105170000E4693461DF0F9FC0446103015F08CFAEB
:1051800018202680A4F802B01DF0EFFCCDE9009AAB
:1051900006466B46024603CB46F80C5B00233D688F
:1051A000D36048F002087360E360506091600E497C
:1051B0005161C4E90833A4F80480A2606B683846E2
:1051C0002146984740B903B0BDE8F08F1AF0010FAF
:1051D000C6D16FF47A70F6E720460FF075FD2046D1
:1051E0001DF0BCFC0148EEE7054B000016FCFFFF7C
:1051F000F0B504462948A16089B00025CDE9040531
:1052000004A803C81E466423E26084F83A324AF6D2
:10521000444246F2BC63A4F83822C4F8283284F829
:10522000195284F81A5284F81B5284F81C5284F8DC
:105230001D5284F81E52C4F82452C4F83452C4F8E3
:105240002C5226618DE80300154F10222346386842
:105250000292072141F29302FFF776FF336830464E
:105260009B68012198470F4B3F68CDE9063508AB95
:1052700013E903003589C0228DE80300234629463F
:10528000029238460222FFF75FFF336830465B6DBB
:1052900002219847204609B0F0BD00BF4D4B0000E9
:1052A000941E0020B1500000014B024A1A60704762
:1052B00028180020484E02002DE9F04B85B22F2D12
:1052C00033DC1C4F1C4E7C5D30683CBBDFF86C80CF
:1052D00098F80010013189000FF0AAFC3060182006
:1052E0001DF043FC4FF0FF3121FA05FB00230BF0CA
:1052F000010213430CBF01230323EAB205F1640149
:10530000814617F013FC98F800203068531CDBB27C
:1053100040F822907B551C4688F8003004F1804408
:10532000013C50F82400BDE8F08B4FF4637003F0AB
:1053300001FFC6E72C1800205C180020EE1F00209B
:10534000002804DBFF2802D080B2FFF7B5BF0020A1
:10535000704700BF0B4B10B403F1F00401E0A3420F
:105360000AD053F8042B002AF9D091888142F6D153
:1053700010465DF8044B7047002210465DF8044B60
:10538000704700BF601900200048704716FCFFFFFF
:1053900010B5044B036000230446C3800EF08CFC60
:1053A000204610BD244E020010B5064B03600023BA
:1053B0000446C3800EF080FC20461DF0CFFB204643
:1053C00010BD00BF244E020090F82C3003B9704786
:1053D0002DE9F04706468068036884B01B68002109
:1053E0009847B068036801211B6898470824002586
:1053F000306903685B6898476D00002108B145F08B
:105400000105F06803681B689847F068036801218C
:105410001B689847013CEBD1D6E905376F409F42A6
:1054200029D006F11C0506F12C094FF0010811E006
:1054300061B940F6020A01235146684615F00CF99D
:10544000514601230022684615F006F9A94504F1EA
:1054500001040FD035F8022B08FA04F307EA030120
:10546000002AF3D070690342E2D10029EED040F661
:10547000030AE0E7776104B0BDE8F087104B10B491
:105480001C68CCB104F11C02002332F8021B8842D4
:1054900006D00133082BF8D100205DF8044B70478B
:1054A00061695DF8044B012202FA03F30B420CBF61
:1054B00000204FF40070704720465DF8044B7047A1
:1054C00060180020F8B51E4D2C680CB12046F8BDC0
:1054D00030201DF04AFB00261A4B0360044646604C
:1054E0000EF07AFB1848E2881849216000F1D801D3
:1054F00042F400520127A060E16078304FF47A61F5
:10550000E280A18066613946A661E661206184F887
:105510002C7026626662A66217F020F92069036883
:105520005B689847A068036839461B689847E0683D
:10553000036839461B6898472C602046F8BD00BFB9
:1055400060180020244E0200E8080020AC3602005B
:1055500070B5A0F21A45072D04460E460ED9A4F5E3
:105560007A73072B01D9002070BDFFF7ABFFA4F5BC
:10557000777400EB44040120A68070BDFFF7A2FF02
:105580000122836902FA05F52B43323C8361E6E789
:10559000F8B50746FFF796FF0446806803680021C8
:1055A0001B689847A068036801211B689847002F73
:1055B0004FF0000515DD2E46206903685B689847AB
:1055C0006D000021013608B145F00105E06803686F
:1055D0001B689847E068036801211B689847B74239
:1055E000EAD12846F8BD00BF10B5FFF76BFF0446AF
:1055F0000069036800219B689847A0680368002140
:105600009B689847E068036800219B6898470023DF
:1056100084F82C3010BD00BF704700BF2DE9F04F5B
:10562000DFF8F092D9F8004085B01CB1204605B0F3
:10563000BDE8F08F64201DF098FA002680F85C60C9
:10564000866080F84C600446A2480EF0FBFC3146B0
:10565000A14817F065F90A200FF002FC01219E48CD
:1056600017F05EF903200FF063F81120FFF790FFA9
:105670000546002840F0A58064200FF059F8974BAC
:10568000974A9848CDE902320EF0DCFC4FF0800BCF
:1056900040F2036A2C201DF068FA934B002603F1B8
:1056A000300132460096074617F0BAFE08201DF07A
:1056B0005CFA3946804613F031FC8C4BC4F800800C
:1056C000636530201DF051FA894B216832468046CF
:1056D00013F020F8B542C4F8048014BF6FF07F4582
:1056E000354641F6376300265A46514681482566BD
:1056F000A4F85A600EF0A6FC3B6803999B683846F4
:1057000098473B6808223146DB68384698473B6833
:1057100031461B693846984731466F4817F000F903
:1057200014200FF005F801216B4817F0F9F8142048
:105730000EF0FEFF6368002B6DD001216E4817F05C
:10574000EFF8606803681B68984752469DF8081098
:10575000606813F0A1FB6068B4F85650A4F8585084
:1057600094F85A1094F85B20B4F8543000285CD0B8
:10577000009513F063FB94F85B0094F85A30B4F88A
:105780005620B4F8541000905C480EF05BFC94F87E
:105790005C30002B4FD1B4F85430B4F8560000FB05
:1057A00003F000EBD0704010143006F059F90023DC
:1057B00020652046C9F8004084F84E3005B0BDE8A9
:1057C000F08F012384F84C3001464D480EF03AFC2E
:1057D0004C4B9D4238D015F0200FC5F382170CBFFB
:1057E00040238023022F029367D0032F5CD0012F28
:1057F0006BD0812003F09EFC354640F2036A3946A7
:10580000029F4148414E039653463A460EF01AFC19
:105810005FFA87FB3EE7B4F8565094F85A1094F8B4
:105820005B20B4F85430A4F85850A068018042803E
:105830008380C5809FE7B4F85430B4F856005B10FD
:10584000401000FB03F0ACE7FFF7CEFE2C201DF06C
:105850008CF9254B009603F1180203F1300107463D
:1058600017F0DEFD08201DF080F93946054613F0DB
:1058700055FB274B6365C4E900564FF40F701DF0CC
:1058800074F9174A1A4B0392394632460546FFF718
:10589000AFFC124AA5604FF0800B354640F2036A18
:1058A00041F2920302921EE7029B43F0807302933F
:1058B0004FF0807540F2036AA1E7029BDFF858A021
:1058C00043F008030293354699E7354640F2036AF0
:1058D00095E700BFC8360200900900208000000252
:1058E00000127A00DC36020048090020A000800087
:1058F000D008002040370200A80900202437020009
:10590000F4360200FFFF0100003702000024F4001B
:10591000A000780064180020FF140E0008B5FFF7FF
:105920007DFE18B18068003018BF012008BD00BF9F
:10593000F8B50446FFF772FEC8B16368302B054620
:1059400016D12F6E204604F1300605F10802437A85
:10595000047A817A1B0243EA04430B4303307B4001
:10596000864242F8043FF2D1012385F84D30F8BD5C
:10597000822003F0DFFBE4E708B5FFF74FFE08B134
:1059800090F84C0008BD00BF08B5FFF747FE10B106
:10599000B0F8580008BD4FF0FF3008BD08B5FFF75C
:1059A0003DFE10B1B0F8540008BD4FF0FF3008BD07
:1059B00070B582B00546FFF731FE00283BD090F865
:1059C0004E300446002B36D190F85C200123002A8B
:1059D00014BF02221A4680F84E304DB36B68597AD4
:1059E000042906D15989B0F8540002FB01F1814223
:1059F00031D0832003F09EFB6068F0B112F0C4FF49
:105A000094F84D3004F10C06DBB1002384F84D30DE
:105A10006968206D4A681031083A01F0C5FD6B686D
:105A200060685A89216D9B8980B1009613F0BEF899
:105A3000002384F84E3002B070BDA068FFF7CAF8AA
:105A4000DEE7A368002B08BF0026E1E7A068009608
:105A5000FFF73AFBECE79989B4F8583002FB01F202
:105A60009A42C6D1C8E700BF10B5041E13DB642CF0
:105A70000ADDFFF7D3FD002839D08368002B36D02C
:105A8000642483F83A4210BDFFF7C8FD90B18368E3
:105A900083B1E4B205E0FFF7C1FD28B183681BB113
:105AA000002483F83A4210BD00211448BDE810409C
:105AB00016F036BF002CF7D0642C18D0FFF7AEFDDF
:105AC0000028E0D08368002BDDD04FF47A710B48BA
:105AD00016F09EFE04FB04F409490848C4EB842434
